:020000040000FA
:1000000028EF00F00402F350F926D10C510C060C35
:10001000590C430CC00CE00C000CEC0C410C610CB6
:10002000E20C640C540CEE0C080C0402F350F9269C
:10003000D10C510C060C590C430CC00CE00C000CFC
:10004000EC0C410C610CE20C080CEE0C540C640C32
:10005000926A936A946A956A806A816A826A836AFC
:100060008A6A896A8B6A8C6A006A016A026A036A10
:10007000046A020E046EAF0EC06E000EC16E928056
:100080005B81010EC26EC282C2B2FED7C4CF00F045
:10009000C3CF01F0001E00500F0B15EC00F0816E75
:1000A00001500F0B02EC00F0836EC3CF01F0013A58
:1000B00001500F0B02EC00F0826EC3CF01F0013A49
:1000C000011E01500F0B02EC00F0806E022E66EF55
:0C00D00000F0032E66EF00F039EF00F0A6
:0200DC00000022
:020000040030CA
:0100010028D6
:010003003CC0
:01000500D129
:0100060005F4
:00000001FF
